:100000000C9462000C948A000C948A000C94F212F6
:100010000C94C9120C94A0120C948A000C948A00BF
:100020000C948A000C948A000C948A000C948A0028
:100030000C948A000C948A000C948A000C948A0018
:100040000C94DF100C948A000C944F110C9429111D
:100050000C948A000C948A000C948A000C948A00F8
:100060000C9481110C948A000000000024002700E9
:100070002A0000000000250028002B0000000000DE
:1000800023002600290004040404040404040202DA
:100090000202020203030303030301020408102007
:1000A0004080010204081020010204081020000012
:1000B0000008000201000003040700000000000027
:1000C00000001B1311241FBECFEFD8E0DEBFCDBF51
:1000D00024E0A2EFB1E001C01D92A93EB207E1F712
:1000E00011E0A0E0B1E0E2E2F8E302C005900D9279
:1000F000A23FB107D9F710E0C2E6D0E004C02197D3
:10010000FE010E948918C136D107C9F70E94681400
:100110000C940F1C0C94000008950895CF92DF9268
:10012000EF92FF926B017C01E091DA02F091DB0229
:1001300082E08083C11481EED806E104F104A1F0CD
:1001400060E079E08DE390E0A70196010E94161827
:100150002150310941095109569547953795279501
:10016000211580E13807A8F0E091DA02F091DB0276
:10017000108260E874E88EE190E0A70196010E9489
:10018000161821503109410951095695479537955F
:100190002795E091D602F091D7023083E091D80202
:1001A000F091D90220831092E202E091DE02F091F8
:1001B000DF0286E08083E091DC02F091DD02808145
:1001C00080618083E091DC02F091DD0280818860B3
:1001D0008083E091DC02F091DD0280818068808381
:1001E000E091DC02F091DD0280818F7D8083FF90C1
:1001F000EF90DF90CF900895833081F028F4813024
:1002000099F08230A9F008958730A9F08830C9F0BC
:100210008430B1F4809180008F7D03C08091800094
:100220008F7780938000089584B58F7784BD08957B
:1002300084B58F7DFBCF8091B0008F778093B00025
:1002400008958091B0008F7DF9CFCF93DF93282F51
:1002500030E0F901E255FF4F8491F901E656FF4F76
:10026000D491F901EA57FF4FC491CC23A1F0811139
:100270000E94FC00EC2FF0E0EE0FFF1FE458FF4F50
:10028000A591B491EC91ED2381E090E009F480E038
:10029000DF91CF91089580E090E0FACF1F93CF9344
:1002A000DF93282F30E0F901E255FF4F8491F901E7
:1002B000E656FF4FD491F901EA57FF4FC491CC2382
:1002C000A9F0162F81110E94FC00EC2FF0E0EE0F38
:1002D000FF1FEE58FF4FA591B4918FB7F894EC91A2
:1002E000111108C0D095DE23DC938FBFDF91CF9131
:1002F0001F910895DE2BF8CFCF93DF9390E0FC01A0
:10030000E656FF4F24918A579F4FFC018491882322
:10031000D1F090E0880F991FFC01E859FF4FA5919B
:10032000B491FC01EE58FF4FC591D491623071F445
:100330009FB7F8943C91822F809583238C93E8811A
:100340002E2B28839FBFDF91CF9108958FB7F8940C
:10035000EC912E2B2C938FBFF6CF3FB7F894809162
:10036000500290915102A0915202B091530226B5D1
:10037000A89B05C02F3F19F00196A11DB11D3FBFDD
:10038000BA2FA92F982F8827BC01CD01620F711DAC
:10039000811D911D42E0660F771F881F991F4A95A6
:1003A000D1F708958F929F92AF92BF92CF92DF9232
:1003B000EF92FF924B015C010E94AD016B017C0149
:1003C0000E94AD016C197D098E099F09683E73403A
:1003D00081059105A8F321E0821A9108A108B108CE
:1003E00088EEC80E83E0D81EE11CF11C8114910434
:1003F000A104B10429F7FF90EF90DF90CF90BF9058
:10040000AF909F908F9008952FB7F89460914C0211
:1004100070914D0280914E0290914F022FBF08952E
:10042000AF92BF92CF92DF92EF92FF920F931F9302
:10043000CF93DF936C017B018B01040F151FEB0140
:100440005E01AE18BF08C017D10759F06991D601F7
:10045000ED91FC910190F081E02DC6010995892B69
:1004600079F7C501DF91CF911F910F91FF90EF9028
:10047000DF90CF90BF90AF900895FC01538D448DD5
:10048000252F30E0842F90E0821B930B541710F03F
:10049000CF96089501970895FC01918D828D98174C
:1004A00061F0A28DAE0FBF2FB11D5D968C91928D24
:1004B0009F5F9F73928F90E008958FEF9FEF089555
:1004C000FC01918D828D981731F0828DE80FF11D1E
:1004D000858D90E008958FEF9FEF0895FC01918D39
:1004E000228D892F90E0805C9F4F821B91098F7332
:1004F000992708958AEC92E00E946E0221E0892BF0
:1005000009F420E0822F0895FC01A48DA80FB92FD3
:10051000B11DA35ABF4F2C91848D90E001968F732B
:100520009927848FA689B7892C93A089B1898C914A
:10053000837080648C93938D848D981306C0028899
:10054000F389E02D80818F7D80830895EF92FF9263
:100550000F931F93CF93DF93EC0181E0888F9B8DE6
:100560008C8D98131AC0E889F989808185FF15C0A0
:100570009FB7F894EE89FF896083E889F9898081C3
:100580008370806480839FBF81E090E0DF91CF9192
:100590001F910F91FF90EF900895F62E0B8D10E0B4
:1005A0000F5F1F4F0F731127E02E8C8D8E110CC023
:1005B0000FB607FCFACFE889F989808185FFF5CF6E
:1005C000CE010E948402F1CFEB8DEC0FFD2FF11DC7
:1005D000E35AFF4FF0829FB7F8940B8FEA89FB89AB
:1005E00080818062CFCF682F8AEC92E00C94A602C3
:1005F000CF93DF93EC01888D8823B9F0AA89BB895A
:10060000E889F9898C9185FD03C0808186FD0DC044
:100610000FB607FCF7CF8C9185FFF2CF808185FF65
:10062000EDCFCE010E948402E9CFDF91CF910895F2
:1006300080E090E0892B29F00E947A0281110C94CD
:10064000000008950895089520912802260F332769
:10065000331F21323105ECF42091A002FC0190E01F
:1006600080E0243069F082E00895A0912802219171
:10067000AC01485F5D4FA40FB52FB11D2C930196BF
:10068000861798F380912802680F6093280280E013
:10069000089581E008951092A00281E080939F0266
:1006A00010927A0261E082E10E944E0161E083E1F2
:1006B0000E944E01E9EBF0E080818E7F8083808193
:1006C0008D7F808388E48093B80085E48093BC00AC
:1006D000089510925902109258021092A702109297
:1006E000C9020E944B038CE890E0909357028093DC
:1006F00056028DE890E0909355028093540208953D
:10070000CF93DF9391E0909307028823B9F0C091D3
:10071000B800D091BA008091BC008A7B8093BC0065
:1007200060E082E10E944E0160E083E10E944E01A0
:100730000E944B03D093BA00C093B800DF91CF91D1
:1007400008958F929F92AF92BF92CF92DF92EF92D5
:10075000FF920F931F93CF93DF93D091C902D132B1
:1007600008F0D7C0182FC091C8020E94AD016B01DC
:100770007C018091A00281116BC082E08093A00275
:1007800010939F028FEF80939E0210929D02D09350
:100790009C02A8EAB2E0ECE7F2E080E0D81391C056
:1007A00010927B0280917B02CC0FC82BC0937B02FE
:1007B00080917A02813009F088C010927A020E94FA
:1007C000AD016B017C0180917B028093BB00809125
:1007D000A2029091A302A091A402B091A502892B3C
:1007E0008A2B8B2BA1F00E94AD010091A2021091E7
:1007F000A3022091A4023091A5026C197D098E09F3
:100800009F09061717072807390708F442C0809187
:10081000BC0083FDD8CF85EC8093BC000E94AD0165
:100820006B017C018091A002823009F450C080915C
:100830009E028F3F09F46FC080919E02803209F4BE
:100840006CC080919E02803309F469C084E026C0A8
:100850008091A2029091A302A091A402B091A5025E
:10086000892B8A2B8B2B09F484CF0E94AD018090B9
:10087000A2029090A302A090A402B090A5026C19CD
:100880007D098E099F0986169706A806B90608F005
:1008900070CF8091A1020E94800385E01092A70290
:1008A0001092C9021092A602DF91CF911F910F9171
:1008B000FF90EF90DF90CF90BF90AF909F908F9080
:1008C00008959D9191938F5F69CF85EEA5CF80911B
:1008D000A2029091A302A091A402B091A502892B3B
:1008E0008A2B8B2B09F49ECF0E94AD010091A202AE
:1008F0001091A3022091A4023091A5026C197D09E8
:100900008E099F09061717072807390708F08ACFAD
:10091000C0CF81E0C3CF80E0C1CF82E0BFCF83E012
:10092000BDCF1F93CF93DF93EA01122FDC01119605
:100930008D919C91DC01ED91FC910280F381E02D81
:100940000995C817D90729F4812F0E94A10391E0C6
:10095000811190E0892FDF91CF911F910895CF935E
:10096000DF93EC018B818823A1F0888191E0909343
:10097000A6028093C8021092A7021092C90281E0D9
:100980000E94A10391E0811190E0892FDF91CF9126
:1009900008950E94690381E08B83CE010E94AF0419
:1009A000982F8111E2CFF1CF0895E0915902809103
:1009B0005802E81730F4F0E0E65AFD4F808190E0ED
:1009C00008958FEF9FEF08959091590280915802FA
:1009D0002FEF3FEF981748F4E92FF0E0E65AFD4F6C
:1009E000208130E09F5F90935902C9010895809162
:1009F000580290915902891B990B0895CF92DF926A
:100A0000EF92FF920F931F93CF93DF937C01CB0163
:100A10008A012091A602222389F0EB016B01C40E0A
:100A2000D51ECC15DD0569F06991D701ED91FC91DA
:100A30000190F081E02DC7010995F3CF642F0E944A
:100A40002403C801DF91CF911F910F91FF90EF9088
:100A5000DF90CF900895CF93DF931F92CDB7DEB78D
:100A600069832091A6022223F9F02091C902203245
:100A700058F021E030E0FC013383228390E080E0F5
:100A80000F90DF91CF9108958091A702E82FF0E0B9
:100A9000E855FD4F998190838F5F8093A7028093E3
:100AA000C90281E090E0ECCF61E0CE0101960E94A6
:100AB0002403F7CF90E080E00895862F0C94F30292
:100AC0008AEC92E00C944C028AEC92E00C946E0258
:100AD000CB01BA010C948E000F931F93CF93DF9339
:100AE000EB01FC010281138161E0802F0E947C01F7
:100AF000209741F460E0802FDF91CF911F910F91FB
:100B00000C944E01CF3FD10511F461E0F4CFF80110
:100B1000FF27E255FF4FE491E33039F140F4E13033
:100B2000B1F0E230E9F0C038D1057CF7E3CFE7302F
:100B300031F1E83061F1E430B1F7809180008062FA
:100B400080938000D0938B00C0938A0004C084B54A
:100B5000806884BDC7BDDF91CF911F910F9108952B
:100B600084B5806284BDC8BDF6CF80918000806866
:100B700080938000D0938900C0938800ECCF80914F
:100B8000B00080688093B000C093B300E4CF809140
:100B9000B00080628093B000C093B400DCCF61E00D
:100BA000FC0182810C947C014F925F926F927F9244
:100BB0008F929F92AF92BF92CF92DF92EF92FF926D
:100BC0000F931F93CF93DF93EC018B014A01898927
:100BD0009A896B01C81AD90AED84FE84EC18FD08C5
:100BE000AF84B888A881B98197010E9457182B015A
:100BF0003C018D899E89A601481B590B2A813B81A6
:100C0000429FC001439F900D529F900D1124092EC9
:100C1000000CAA0BBB0BA3019201281B390B4A0B3A
:100C20005B0BCA01B90125010B2C000C6608770883
:100C3000640D751D861D971D2E813F81032E000CAE
:100C4000440B550B0E9438184F88588C698C7A8C4D
:100C5000420E531E641E751E8A859B85092E000C4C
:100C6000AA0BBB0B481659066A067B06D4F4888586
:100C70009985092E000CAA0BBB0B84159505A605BA
:100C8000B7057CF44C815D81E49EC001E59E900D2A
:100C9000F49E900D1124A80EB91EB88AAF86D30118
:100CA000C201F40191838083012E000C220B330BCF
:100CB000098B1A8B2B8B3C8BDE8ACD8A8F8B988F7E
:100CC000A98FBA8FDF91CF911F910F91FF90EF9075
:100CD000DF90CF90BF90AF909F908F907F906F905C
:100CE0005F904F900895CF93DF93EC0181E077FF01
:100CF00004C071956195710980E06F3F710519F02D
:100D000014F06FEF70E08823B1F08A819B81DC01E1
:100D1000ED91FC910680F781E02D09958C819D81F4
:100D2000DC01ED91FC910680F781E02D70E060E040
:100D3000DF91CF9109948C819D81DC01ED91FC9133
:100D40000680F781E02D09958A819B81E9CFCF93B9
:100D5000DF93EC0188819981DC01ED91FC910480A5
:100D6000F581E02D09958A819B81DC01ED91FC9153
:100D70000480F581E02D09958C819D81DC01ED9148
:100D8000FC910480F581E02DDF91CF910994FC0165
:100D900082819381FC01E656FF4F44918A579F4F11
:100DA000FC0184918823F1F08250282F30E0220F3B
:100DB000331FF901E65EFE4FA081B181EC91E42B77
:100DC000EC939091680041E050E001C0440F8A9597
:100DD000EAF7892F842B809368002A503E4FF9014F
:100DE000718360830895FC0182810C94250162E087
:100DF000FC0182810C947C01CF93DF93EC0188810C
:100E00009981DC01ED91FC910480F581E02D09953B
:100E100088819981E091FC01F091FD01EE0FFF1FA7
:100E2000EA5EFE4F60817181DC01ED91FC910084EE
:100E3000F185E02D09958A819B81DC01ED91FC9182
:100E40000480F581E02D09958A819B81E091FC0168
:100E5000F091FD01EE0FFF1FEA5EFE4F6081718190
:100E6000DC01ED91FC910084F185E02D09958091E4
:100E7000FC019091FD01FC01EE0FFF1FEE50FE4FB3
:100E8000D183C08301969093FD018093FC01DF9193
:100E9000CF9108950F931F93CF93DF93EC018C8133
:100EA000880F880F8C838A819B81DC01ED91FC91F6
:100EB0000680F781E02D09958C0188819981DC01FC
:100EC000ED91FC910680F781E02D0995000F111F2F
:100ED000082BEC81E02BEC834D815E816F8178855E
:100EE000EF70F0E0EA5FFE4F9081892F990F990B28
:100EF000AA0BBB0B840F951FA61FB71F8D839E8364
:100F0000AF83B887DF91CF911F910F9108958091A2
:100F1000F4019091F501009711F00C944A0708959F
:100F20008091F2019091F301009711F00C944A071F
:100F30000895FC0182810C944E0161E0FC018281E4
:100F40000C947C01089508950895FC0101900020FF
:100F5000E9F73197AF01481B590BBC018AEC92E0CD
:100F60000C94100286EA91E00C94A507CF93DF93CE
:100F7000862F0E94F302EC010E94B2078C0F9D1F86
:100F8000DF91CF9108958F929F92AF92BF920F936E
:100F90001F93CF93DF93CDB7DEB7A1970FB6F89429
:100FA000DEBF0FBECDBF19A2423008F44AE08E0169
:100FB0000F5D1F4F842E912CB12CA12CA501940103
:100FC0000E941618E62FB901CA01EA30F4F4E05D78
:100FD000D801EE938D01232B242B252B79F790E05C
:100FE00080E0109719F0CD010E94A507A1960FB6D9
:100FF000F894DEBF0FBECDBFDF91CF911F910F914F
:10100000BF90AF909F908F900895E95CE1CFCF9211
:10101000DF92EF92FF92CF93DF934115510551F488
:101020008AEC92E0DF91CF91FF90EF90DF90CF902C
:101030000C94A6024A305105E1F44AE097FF19C02A
:101040006B017C018DE20E94F302EC016627772799
:10105000CB016C197D098E099F094AE00E94C307E4
:101060008C0F9D1FDF91CF91FF90EF90DF90CF907D
:101070000895DF91CF91FF90EF90DF90CF900C9487
:10108000C307CF93DF93AB01BC01990F880B990B7A
:101090000E940708EC010E94B2078C0F9D1FDF9190
:1010A000CF910895CB01BA010C9441088091FE01C3
:1010B0006AE070E090E00C944108CF93DF93CB019D
:1010C000BA01A9010E940708EC010E94B2078C0F27
:1010D0009D1FDF91CF910895CB01BA01A9010C9416
:1010E0000708072E000C880B990B0C940708411574
:1010F000510521F48AEC92E00C94A6020C94C307EB
:1011000090E080E00C947708CF93DF93CB01BA0195
:10111000A9010E947708EC010E94B2078C0F9D1F65
:10112000DF91CF910895CF93DF9390E080E00E940C
:101130007708EC010E94B2078C0F9D1FDF91CF91C1
:10114000089570E090E080E00C947708CF93DF93EF
:1011500070E090E080E00E947708EC010E94B20706
:101160008C0F9D1FDF91CF910895CB01BA01A9018A
:101170000C947708CF93DF93D0E0C0E0009719F08C
:101180000E94A507EC010E94B2078C0F9D1FDF9102
:10119000CF910895CB010C94BA0889EA91E00C94A0
:1011A000BA08CF93DF93E4ECF3E01582168217823E
:1011B0001086C3EBD3E01D821E821F8218868581B4
:1011C0009681A781B085E8E9F3E016861586108A36
:1011D0001786092E000CAA0BBB0B818B928BA38B5D
:1011E000B48B168A158A178A108E118E128E8D81F5
:1011F0009E81AF81B885EDE7F3E016861586108AEB
:101200001786092E000CAA0BBB0B818B928BA38B2C
:10121000B48B168A158A178A108E118E128E8AEB5D
:1012200091E0DF91CF910C94BA08009711F00C94E3
:10123000A50790E080E008956091C9037091CA030A
:101240008091CB039091CC034AE050E00E940708C4
:101250008EED91E00E9415096091B8037091B90379
:101260008091BA039091BB034AE050E00E940708C6
:101270000C94B207CB01009711F00C94A50790E0F5
:1012800080E008954F925F926F927F928F929F922B
:10129000AF92BF92CF92DF92EF92FF920F931F9384
:1012A000CF936B017C01742EAC019B010E94C61A86
:1012B000882399F08DEB91E0CF911F910F91FF90D2
:1012C000EF90DF90CF90BF90AF909F908F907F90E6
:1012D0006F905F904F900C94A50746015701E894DA
:1012E000B7F82FEF3FEF4FE75FE7C501B4010E946A
:1012F000C61A81110DC02FEF3FEF4FE75FE7C50121
:10130000B4010E94FC1818161CF481EC91E0D4CFB3
:101310002FEF3FEF4FE75FE4C701B6010E94541A79
:1013200018161CF485EC91E0C7CF2FEF3FEF4FE785
:101330005FECC701B6010E94FC1887FDF3CF20E0E7
:1013400030E0A901C701B6010E94FC1810E000E0DE
:1013500087FF08C08DE20E94F3028C01F7FAF09437
:10136000F7F8F094C0E060E070E080E09FE37C1666
:1013700041F020E030E040E251E40E940119CF5FEB
:10138000F6CFA70196010E9490182B013C010E9404
:1013900073194B015C014AE00E94C3077C01E00E17
:1013A000F11ECC23B1F1C501B4010E94A2199B0129
:1013B000AC01C301B2010E948F184B015C018EE2A7
:1013C0000E94F302E80EF91EC15018F120E030E04F
:1013D00040E251E4C501B4010E94591A2B013C01BD
:1013E0000E9473194B01B12CA12C4AE0C501B40134
:1013F0000E94C307E80EF91EC501B4010E94A2199C
:101400009B01AC01C301B2010E948F184B015C012A
:10141000DBCFC701CF911F910F91FF90EF90DF902D
:10142000CF90BF90AF909F908F907F906F905F9084
:101430004F9008950C944209CF93DF93CB01BA01EA
:10144000422F0E944209EC010E94B2078C0F9D1F9F
:10145000DF91CF910895CB01BA01422F0C9442093C
:10146000CF93DF9300D0CDB7DEB789836A838091B5
:10147000750390917603FC0124813581223031057A
:10148000B8F0208131E03093A6022093C802109278
:10149000A7021092C90221E042E050E0BE016F5F56
:1014A0007F4F0E9491040F900F90DF91CF9108958C
:1014B00080E0F9CFE3E7F3E080879187682F8DE341
:1014C00090E00E94300A6EE170E080E090E00C94C1
:1014D000D2012F923F924F925F926F927F928F92A2
:1014E0009F92AF92BF92CF92DF92EF92FF920F93B3
:1014F0001F93CF93DF93DC011496ED91FC91159728
:10150000EF2B09F412C169012A01EC01888191E0F5
:101510009093A6028093C8021092A7021092C9026B
:1015200020E041E050E0CD010E949104782E882314
:1015300009F4FBC0F12CE12C33243394EC14FD04AA
:1015400008F0F4C08C819D8186010E191F09801757
:10155000910708F48C0128800E94AD014B015C01C9
:101560008091A002811173C0602EB0E2B01710F418
:1015700080E2682E3092A00221E0C601801B910B10
:10158000E816F90608F420E020939F02EFEFE093BD
:101590009E0210929D028FEF860D80939C023092E6
:1015A0007B0280917B02220C282A20927B02809170
:1015B0007A02813009F090C010927A020E94AD0147
:1015C0004B015C0180917B028093BB008091A20261
:1015D0009091A302A091A402B091A502892B8A2B1D
:1015E0008B2BA1F00E94AD012091A2023091A302A9
:1015F0004091A4025091A502681979098A099B09B2
:10160000261737074807590708F442C08091BC00E5
:1016100083FDD8CFF5ECF093BC000E94AD014B01E7
:101620005C018091A002813009F45AC080919D0232
:10163000861510F460909D02ACE7B2E0EAE5F2E0B6
:1016400080E0861551F19D9191938F5FFACF809143
:10165000A2029091A302A091A402B091A502892BAD
:101660008A2B8B2B09F47CCF0E94AD012091A20222
:101670003091A3024091A4025091A5026819790902
:101680008A099B09261737074807590708F068CFCA
:101690008091A1020E948003612C109259026092F5
:1016A00058026016110609F040C042018E0C9F1CC2
:1016B0005401C501881999098017910798F5898106
:1016C0009A81DC01ED91FC910284F385E02D09956E
:1016D000F50181935F01EDCF85EE8093BC009DCF36
:1016E0008091A2029091A302A091A402B091A502C0
:1016F000892B8A2B8B2B09F494CF0E94AD0120916A
:10170000A2023091A3024091A4025091A50268194F
:1017100079098A099B09261737074807590708F0EE
:1017200080CFB6CFE00EF11E09CF712C872DDF914F
:10173000CF911F910F91FF90EF90DF90CF90BF90CE
:10174000AF909F908F907F906F905F904F903F9061
:101750002F900895CF93DF931F92CDB7DEB71982F4
:1017600021E030E0AE014F5F5F4FBA018091750319
:10177000909176030E94690A89810F90DF91CF9141
:101780000895EF92FF920F931F93CF93DF93CDB7FE
:10179000DEB72A970FB6F894DEBF0FBECDBF00911B
:1017A0009D0410919E0400311105E0F47B01BC0101
:1017B000CE0101960E94F91BFA86E986C8010196BE
:1017C00090939E0480939D048AE0809FD001819F26
:1017D000B00D1124A350BC4FFE01319601900D9223
:1017E0008A95E1F72A960FB6F894DEBF0FBECDBFFB
:1017F000DF91CF911F910F91FF90EF9008950C947E
:10180000671B0C94671B0C94671B0C94671B0C9450
:10181000671B8F929F92AF92BF92CF92DF92EF920F
:10182000FF920F931F93CF93DF93CDB7DEB76397EC
:101830000FB6F894DEBF0FBECDBF7C018B01FB015C
:10184000349680E2DF011D928A95E9F784E290E008
:10185000A0E0B0E0FB0180839183A283B383F70112
:1018600084819581A681B781FB0184839583A683BA
:10187000B78383E090E0A0E0B0E080879187A28703
:10188000B3870E940402D80150966D937D938D9387
:101890009C9353978CE0FE013196DF011D928A954F
:1018A000E9F7AE01435F5F4F86E0FA0111928A9536
:1018B000E9F78AE18B8B26E030E0BE016D5E7F4F59
:1018C000D70112968D919C910E94690A6D857E8543
:1018D000072E000C880B990B0E94A41920E030E021
:1018E00040E85DE30E94591A4B015C016F857889DD
:1018F000072E000C880B990B0E94A41920E030E001
:1019000040E85DE30E94591A6B017C0169897A897C
:10191000072E000C880B990B0E94A41920E030E0E0
:1019200040E85DE30E94591AF801848A958AA68AE4
:10193000B78AC08ED18EE28EF38E648F758F868FBC
:10194000978F81E063960FB6F894DEBF0FBECDBFD0
:10195000DF91CF911F910F91FF90EF90DF90CF908B
:10196000BF90AF909F908F9008952F923F924F928B
:101970005F926F927F928F929F92AF92BF92CF921F
:10198000DF92EF92FF920F931F93CF93DF93CDB728
:10199000DEB7A3970FB6F894DEBF0FBECDBF609140
:1019A000C9037091CA038091CB039091CC034AE0A4
:1019B00050E00E9407088EED91E00E9415096091A9
:1019C000B8037091B9038091BA039091BB034AE0C8
:1019D00050E00E9407088EED91E00E941509CE01AB
:1019E00001961C0188E0F10111928A95E9F780E2E5
:1019F0008D878E01035F1F4F28E030E0A101B80101
:101A000080917503909176030E94690A6F817885B1
:101A1000072E000C880B990B0E94A41920E030E0DF
:101A200040E858E30E94591A6B017C016D817E8168
:101A3000072E000C880B990B0E94A41920E030E0BF
:101A400040E858E30E94591A4B015C016B817C818C
:101A5000072E000C880B990B0E94A41920E030E09F
:101A600040E858E30E94591A2B013C0169817A81B0
:101A7000072E000C880B990B0E94A41920E030E07F
:101A800040E858E30E94591A68A379A38AA39BA34C
:101A900044E050E0C301B2010E941A0A8EED91E0C9
:101AA0000E94150944E050E0C501B4010E941A0AE1
:101AB0008EED91E00E94150944E050E0C701B601A7
:101AC0000E941A0A8EED91E00E94150944E050E050
:101AD00068A179A18AA19BA10E941A0A8EED91E0CA
:101AE0000E9415098CE0982EF101892D11928A959A
:101AF000E9F796E0892EF801882D11928A95E9F789
:101B000084E1898F7E0199E1E90EF11C26E030E045
:101B1000A801B70180917503909176030E94690A2C
:101B2000AF84B888C988DA886D857E85072E000C59
:101B3000880B990B0E94A41920E030E040E85DE397
:101B40000E94591A2B013C0149825A826B827C8285
:101B5000B501BB0C880B990B0E94A41920E030E062
:101B600040E85DE30E94591A6D837E838F839887D6
:101B7000B601DD0C880B990B0E94A41920E030E01F
:101B800040E85DE30E94591A69877A878B879C87B2
:101B900042E050E0C301B2010E941A0A8EED91E0CA
:101BA0000E9415096D817E818F81988542E050E009
:101BB0000E941A0A8EED91E00E94150969857A85C6
:101BC0008B859C8542E050E00E941A0A8EED91E0E0
:101BD0000E941509F80111929A94E9F7F701119200
:101BE0008A94E9F788E28F8F26E030E0A701BE01F2
:101BF000615E7F4F80917503909176030E94690A20
:101C0000AB8CBC8C0D8D1E8D698D7A8D072E000CD2
:101C1000880B990B0E94A41920E030E048EC52E4B4
:101C20000E9401196B017C01CD86DE86EF86F88A61
:101C3000B501BB0C880B990B0E94A41920E030E081
:101C400048EC52E40E940119698B7A8B8B8B9C8B38
:101C5000B801110F880B990B0E94A41920E030E005
:101C600048EC52E40E9401196D8B7E8B8F8B988F0C
:101C700042E050E0C701B6010E941A0A8EED91E0E1
:101C80000E94150969897A898B899C8942E050E014
:101C90000E941A0A8EED91E00E9415096D897E89D5
:101CA0008F89988D42E050E00E941A0AA3960FB6E1
:101CB000F894DEBF0FBECDBFDF91CF911F910F9182
:101CC000FF90EF90DF90CF90BF90AF909F908F905C
:101CD0007F906F905F904F903F902F9008950F935B
:101CE0001F93CF93DF938C01EB0188E2FB011192EC
:101CF0008A95E9F74BE050E069EC71E0CE010E9473
:101D0000001C1B8681E090E0A0E0B0E08C879D87FE
:101D1000AE87BF87F80184819581A681B781888BC2
:101D2000998BAA8BBB8B83E090E0A0E0B0E08C8B1A
:101D30009D8BAE8BBF8B1CA21DA21EA21FA2188E54
:101D4000198E1A8E1B8E1C8E1D8E1E8E1F8E8AE083
:101D500097EDA3E2BCE388A399A3AAA3BBA3DF9159
:101D6000CF911F910F91089585ED8093BC008091D4
:101D7000A2029091A302A091A402B091A50207969D
:101D8000A11DB11D23E0B695A795979587952A9536
:101D9000D1F72091BC0024FD03C01092A002089549
:101DA0004091A2025091A3026091A4027091A502F9
:101DB000452B462B472B69F30097A105B10541F050
:101DC0002AE22A95F1F700C00197A109B109E1CFF4
:101DD0008091A1020C948003AF92BF92CF92DF92C8
:101DE000EF92FF920F931F93CF93DF93CDB7DEB7A0
:101DF0006E970FB6F894DEBF0FBECDBF02970CF4FE
:101E000082C08E010B5E1F4F88E0F80111928A9507
:101E1000E9F7FB0162817381CE0101967C010E948A
:101E2000F91BFE8EED8E7E019DE1E90EF11CA701EE
:101E300060ED71E08D8D9E8D0E94D317009751F05B
:101E40000E151F0539F00E94B017F8018193919388
:101E50008F01EDCFEB8CFC8C098D1A8DCF88D88C3F
:101E6000AD88BE88B0929903A0929803D0929B034C
:101E7000C0929A0310939D0300939C03F0929F03DA
:101E8000E0929E03B0927E03A0927D03D0928003E5
:101E9000C0927F031093820300938103F092840326
:101EA000E092830382ED91E00E941509B501BB0C1D
:101EB000880B990B4AE050E00E9407088EED91E0F4
:101EC0000E941509B601DD0C880B990B4AE050E021
:101ED0000E9407088EED91E00E941509B801110FCC
:101EE000880B990B4AE050E00E9407088EED91E0C4
:101EF0000E9415096AE070E0C7010E9441088AEB60
:101F000091E00E94BA086E960FB6F894DEBF0FBE3D
:101F1000CDBFDF91CF911F910F91FF90EF90DF9098
:101F2000CF90BF90AF9008950F931F93CF93DF93FF
:101F300003970CF471C0EB018A819B810E94B0175A
:101F40008C018C819D810E94B017EC018091C903A6
:101F50009091CA03A091CB03B091CC031092A60339
:101F60001092A5031092A8031092A703092E000C4B
:101F7000AA0BBB0B8093A9039093AA03A093AB0376
:101F8000B093AC031092AE031092AD031092AF0366
:101F90001092B0031092B1031092B2038091B80373
:101FA0009091B903A091BA03B091BB0310928B0337
:101FB00010928A0310928D0310928C03092E000C4C
:101FC000AA0BBB0B80938E0390938F03A093900377
:101FD000B093910310929303109292031092940382
:101FE0001092950310929603109297031092A403F7
:101FF00010928903B80187EE93E00E947306BE0138
:1020000085ED93E00E9473068AEB91E0DF91CF911A
:102010001F910F910C94BA08DF91CF911F910F91EE
:1020200008950F931F93CF93DF9303970CF494C0FD
:10203000EB018A819B810E94B0178C018C819D816C
:102040000E94B017EC010E9404026093FF0170939C
:10205000000280930102909302020115110509F01C
:1020600075C0209709F072C070E060E087EE93E0E1
:102070000E94730670E060E085ED93E00E947306B5
:102080008091C9039091CA03A091CB03B091CC0376
:102090001092A8031092A703092E000CAA0BBB0BE9
:1020A0008093A9039093AA03A093AB03B093AC03CE
:1020B0001092AE031092AD031092AF031092B003D2
:1020C0001092B1031092B2038091B8039091B903BA
:1020D000A091BA03B091BB0310928D0310928C03B0
:1020E000092E000CAA0BBB0B80938E0390938F03D9
:1020F000A0939003B09391031092930310929203D4
:1021000010929403109295031092960310929703E5
:102110001092A403109289032EE130E0C801B901A6
:102120000E9402187093A6036093A503CE01B90123
:102130000E94021870938B0360938A038AEB91E0EC
:10214000DF91CF911F910F910C94BA0881E0809399
:10215000A40380938903E0CFDF91CF911F910F916A
:10216000089502975CF0FB01828193810E94B01771
:102170000E9425016AE070E00C94410808950297DE
:10218000ECF0FB01828193810E94B0178E3008F041
:102190008E508770806480937C0080917A00806488
:1021A00080937A0080917A0086FDFCCF8091780040
:1021B000909179006AE070E00C94410808951F92B4
:1021C0000F920FB60F9211242F933F938F939F93EB
:1021D000AF93BF9380914C0290914D02A0914E021B
:1021E000B0914F0230914B0223E0230F2D3758F569
:1021F0000196A11DB11D20934B0280934C02909338
:102200004D02A0934E02B0934F02809150029091E4
:102210005102A0915202B09153020196A11DB11D2D
:102220008093500290935102A0935202B0935302B4
:10223000BF91AF919F918F913F912F910F900FBEC2
:102240000F901F90189526E8230F0296A11DB11D2F
:10225000D2CF1F920F920FB60F9211242F933F935C
:102260004F935F936F937F938F939F93AF93BF939E
:10227000EF93FF938AEC92E00E948402FF91EF912A
:10228000BF91AF919F918F917F916F915F914F918E
:102290003F912F910F900FBE0F901F9018951F9296
:1022A0000F920FB60F9211242F938F939F93EF935A
:1022B000FF93E091DA02F091DB028081E091E0028D
:1022C000F091E10282FD1BC090818091E3028F5F5B
:1022D0008F732091E402821741F0E091E302F0E075
:1022E000E653FD4F958F8093E302FF91EF919F910D
:1022F0008F912F910F900FBE0F901F901895808196
:10230000F4CF1F920F920FB60F9211242F933F9389
:102310004F935F936F937F938F939F93AF93BF93ED
:10232000EF93FF938091B900887F803609F44AC00B
:10233000F0F5883209F4A7C018F5803109F49BC084
:10234000B8F4882309F4F9C0883009F494C0FF91E7
:10235000EF91BF91AF919F918F917F916F915F911D
:102360004F913F912F910F900FBE0F901F90189596
:10237000883109F488C0803251F780939E0214C0DE
:10238000803409F49DC040F48033B9F38833F9F602
:1023900080939E0285ECB0C0803509F485C08835F5
:1023A00009F496C0883499F60E94B40ED0CF8839CB
:1023B00009F48CC038F5883729F050F4883611F0CC
:1023C000803729F683E08093A00210924A0257C01A
:1023D000883809F47BC0803919F0803809F0B7CF0C
:1023E00080914A02803208F071C0E0914A0281E097
:1023F0008E0F80934A028091BB00F0E0E65DFD4FB6
:1024000080833DC0803B39F0E0F4803A09F479C024
:10241000883A09F09CCF84E08093A00210922902B0
:1024200010922802E0915602F0915702099580918E
:10243000280281110FC081E08093280210920802C7
:1024400009C0803C09F4A6CF883C09F4A3CF883B9F
:1024500009F07DCFE091290281E08E0F809329025F
:10246000F0E0E85FFD4F80818093BB0090912902EE
:102470008091280229C080917B028093BB0085EC6B
:102480008093BC0064CF90919D0280919C0298172C
:1024900058F5E0919D0281E08E0F80939D02F0E05F
:1024A000E458FD4F8081E9CFE0919D0281E08E0FDD
:1024B00080939D028091BB00F0E0E458FD4F808343
:1024C00090919D0280919C029817C8F285E8D8CF20
:1024D000E0919D0281E08E0F80939D028091BB0070
:1024E000F0E0E458FD4F808380919F0281115CCF22
:1024F00081E080937A0284EA8093BC001092A0026B
:1025000026CF85EC8093BC001092A00280914A02F5
:10251000803230F4E0914A02F0E0E65DFD4F108237
:1025200060914A0270E0E0915402F09155028AE213
:1025300092E0099510924A020ACF10929E0234CF7F
:102540001F920F920FB60F9211242F933F934F9328
:102550005F936F937F938F939F93AF93BF93EF930B
:10256000FF93E091FA01F091FB01309709F0099592
:10257000FF91EF91BF91AF919F918F917F916F915B
:102580005F914F913F912F910F900FBE0F901F9031
:1025900018951F920F920FB60F9211242F933F930D
:1025A0004F935F936F937F938F939F93AF93BF935B
:1025B000EF93FF93E091F801F091F901309709F062
:1025C0000995FF91EF91BF91AF919F918F917F916D
:1025D0006F915F914F913F912F910F900FBE0F9090
:1025E0001F9018951F920F920FB60F9211242F93E0
:1025F0003F934F935F936F937F938F939F93AF938B
:10260000BF93EF93FF93E091F601F091F7013097BC
:1026100009F00995FF91EF91BF91AF919F918F9133
:102620007F916F915F914F913F912F910F900FBECE
:102630000F901F9018950F931F93CF93DF93EAECA1
:10264000F2E01382128288EE93E0A0E0B0E084838F
:102650009583A683B78324E231E03183208325EC80
:1026600030E03587248724EC30E03787268720EC5C
:1026700030E0318B208B21EC30E0338B228B22EC4D
:1026800030E0358B248B26EC30E0378B268B118E97
:10269000128E138E148EC7E6D3E01B821A828C83AF
:1026A0009D83AE83BF8386E391E0998388838CE723
:1026B00091E09093E2048093E104E9EFF3E011826A
:1026C00010821382128210929E0410929D04109226
:1026D000E0041092DF0465EF73E08DE090E0DB0131
:1026E00013969C938E93129700E711E00D931C9321
:1026F00041EF53E08AE090E0FA019383828324E67D
:1027000031E031832083ADEEB3E0E6E0F0E01396F4
:10271000FC93EE93129711963C932E93E7EEF3E021
:102720007183608353834283B583A48363EE73E034
:102730004CE050E0DB0113965C934E9312970D939F
:102740001C934FED53E0E9E0F0E0DA011396FC93BF
:10275000EE9312972D933C93ABEDB3E0E5E0F0E000
:102760001396FC93EE93129711963C932E93E5EDFE
:10277000F3E07183608353834283B583A48341ED87
:1027800053E022E030E0FA013383228326E531E092
:1027900031832083ADECB3E063E070E013967C936B
:1027A0006E93129711963C932E93E4ECF3E05183D1
:1027B0004083B383A2831482158216821782108607
:1027C00040EC53E060E170E0DA0113967C936E9385
:1027D00012972D933C93ACEBB3E061E170E013965C
:1027E0007C936E93129711963C932E93E3EBF3E058
:1027F00051834083B383A283148215821682178289
:102800001086E8E9F3E06EE170E071836083938302
:102810008283158214829783868341E05FEF51871C
:1028200040872FEF30E0338722871486168615867F
:10283000108A1786118A128A138A148A168A158AB0
:10284000178A108E118E128EEDE7F3E0718360838C
:10285000938382831582148297838683518740876E
:1028600033872287148616861586108A1786118A62
:10287000128A138A148A168A158A178A108E118E64
:10288000128E03E713E088E491E0F80191838083DE
:1028900087E390E0A0E0B0E084839583A683B783CC
:1028A00086E090E00E94CB1AFC0188E28083D2830C
:1028B000C183138280E290E095838483D8011396CC
:1028C000FC93EE931297DF91CF911F910F91089592
:1028D000CF93DF93CDB7DEB7A2970FB6F894DEBFE4
:1028E0000FBECDBF789484B5826084BD84B581600D
:1028F00084BD85B5826085BD85B5816085BD8091CB
:102900006E00816080936E00109281008091810042
:10291000826080938100809181008160809381003A
:10292000809180008160809380008091B1008460FC
:102930008093B1008091B00081608093B00080915D
:102940007A00846080937A0080917A00826080931C
:102950007A0080917A00816080937A0080917A0079
:10296000806880937A001092C10060E071EE80E090
:1029700090E00E948E008091FC019091FD010297F1
:1029800021F084EC93E00E94FC068091FC01909180
:10299000FD01029721F083EB93E00E94FC0687EE95
:1029A00093E00E94A7068091E7039091E803DC0181
:1029B000ED91FC910680F781E02D61E070E00995D2
:1029C00085ED93E00E94A7068091D5039091D603F0
:1029D000DC01ED91FC910680F781E02D61E070E073
:1029E00009958091C9039091CA03A091CB03B0913E
:1029F000CC031092A6031092A5031092A803109284
:102A0000A703092E000CAA0BBB0B8093A90390937C
:102A1000AA03A093AB03B093AC031092AE03109241
:102A2000AD031092AF031092B0031092B103109255
:102A3000B2038091B8039091B903A091BA03B09109
:102A4000BB0310928B0310928A0310928D03109295
:102A50008C03092E000CAA0BBB0B80938E03909362
:102A60008F03A0939003B09391031092930310925D
:102A70009203109294031092950310929603109271
:102A8000970381EE94E09093FA038093F9038DEC21
:102A900098E09093FC038093FB036FEB70E180EE72
:102AA00091E00E94C10B61EB70E182EE91E00E9427
:102AB000C10B6CE179E084EE91E00E94C10B61ED05
:102AC00078E086EE91E00E94C10B61E170E188EE52
:102AD00091E00E94C10B64E97FE08AEE91E00E94E0
:102AE000C10B6CEE7EE08CEE91E00E94C10B66E5BE
:102AF00078E08EEE91E00E94C10B65EB7CE080EF08
:102B000091E00E94C10B00917503109176030E9421
:102B1000690381E0F801838305E510E0DD24D394A7
:102B2000E0907503F09076030E946903D701139635
:102B3000DC92C7010E94AF048111EAC16AE070E033
:102B400080E090E00E94D2010150110949F79AE01B
:102B5000592E20E0622E20E0722E8091F903909190
:102B6000FA03DC01ED91FC910680F781E02D0995D7
:102B7000181619060CF0E4C08091F9039091FA033D
:102B8000DC01ED91FC910084F185E02D09958A30FE
:102B900021F32091DF043091E0048D3009F0C0C0B2
:102BA000C90101969093E0048093DF0421563B4FC6
:102BB000F90110826EED71E08FE994E00E94CE176A
:102BC0009A838983CE0101967C0110E000E0382EC3
:102BD0004F2CD7018D919D917D01892B21F00F30D4
:102BE000110509F081C0A0909D04B0909E048980D9
:102BF0009A8089EFC82E83E0D82EF12CE12CAE14F8
:102C0000BF0409F481C0B6016C5F7F4FC4010E940C
:102C1000F01BFAE0CF0ED11C892B09F071C05E9C2D
:102C2000F0015F9CF00D1124E750FC4F0484F58502
:102C3000E02D632D742DC80109956DC062E370E02D
:102C400080E090E00E94D20160E08EE390E00E947C
:102C5000300A6AE070E080E090E00E94D20160E01B
:102C600087E090E00E94300A60E08FE390E00E94ED
:102C7000300A6AE070E080E090E00E94D2018CE0CF
:102C800090E00E945A0A64E170E080E090E00E94C7
:102C9000D20100917B0310917C0390E080E00E94C0
:102CA0005A0A69E170E080E090E00E94D20160E0A1
:102CB00087E090E00E94300A60E88FE390E00E9495
:102CC000300A6AE070E080E090E00E94D201C80122
:102CD0000E945A0A64E170E080E090E00E94D20114
:102CE00081E08093FE0133CF0F5F1F4F6EED71E0E7
:102CF00090E080E00E94CE17F7019183808369CF36
:102D00002FEFE21AF20A7BCFE091FB03F091FC0374
:102D1000309709F08ECF1092E0041092DF041DCF9F
:102D2000A9014F5F5F4F5093E0044093DF042156A9
:102D30003B4FD9018C93403451050CF40ECFEBCFAF
:102D40000E940402009103021091040220910502E6
:102D500030910602601B710B820B930B0E94A2192B
:102D600020E030E044E052E40E94541A18160CF0BF
:102D700086C00E9404026093030270930402809351
:102D80000502909306021AA219A21A821982609172
:102D9000C9037091CA038091CB039091CC03209119
:102DA000A4032111A5C02091AD033091AE03232BC4
:102DB00001F11092A6031092A5031092A80310929D
:102DC000A703072E000C880B990B6093A90370933F
:102DD000AA038093AB039093AC031092AE031092BE
:102DE000AD031092AF031092B0031092B103109292
:102DF000B2036091B8037091B9038091BA039091C6
:102E0000BB032091890321117BC020919203309153
:102E10009303232B01F110928B0310928A031092DB
:102E20008D0310928C03072E000C880B990B609376
:102E30008E0370938F03809390039093910310926D
:102E400093031092920310929403109295031092A0
:102E50009603109297038091A403882331F069A10F
:102E60007AA187EE93E00E947306809189038823FC
:102E700031F069817A8185ED93E00E9473060E94AA
:102E800004020091FF011091000220910102309193
:102E90000202601B710B820B930B693B7B40810527
:102EA0009105D0F00E9404026093FF01709300022C
:102EB000809301029093020270E060E087EE93E05D
:102EC0000E94730670E060E085ED93E00E94730657
:102ED0001092A403109289036114710409F43DCE89
:102EE0000E947A02882309F438CE0E94000035CE71
:102EF000AE014F5D5F4F88E993E00E94D40579CF22
:102F0000AE014F5F5F4F8DE793E00E94D405A3CFE2
:102F10000E94AA0B803A59F068EE73E080E090E0DE
:102F20000E94D2010E94AA0B803A09F010CE90E0D4
:102F300080E00E945A0A60E28FE390E00E94300A2B
:102F40006EE170E080E090E00E94D2010E94AA0B46
:102F5000803A09F473CE6AE070E080E090E0F4CF4C
:102F6000FC0188279927E89421912032E9F3293040
:102F700010F02E30C8F32B3241F02D3239F4689422
:102F800004C00E94FA17820F911D219120532A300C
:102F9000C0F31EF4909581959F4F089543EE54E041
:102FA0000E94D3170895FA01A191B081009719F4F6
:102FB0001097E1F0CD01DC01CD010D90002011F45E
:102FC000C00113C0FB012191222319F02015D9F76C
:102FD000F3CFFB012191201519F41E92119606C022
:102FE0002223C1F70D900020A1F7D001FA01A1938F
:102FF000B08308957AE0979F902D879F802D910D43
:103000001124089597FB072E16F4009407D077FD3E
:1030100009D00E94751807FC05D03EF49095819563
:103020009F4F0895709561957F4F0895A1E21A2EE4
:10303000AA1BBB1BFD010DC0AA1FBB1FEE1FFF1F5C
:10304000A217B307E407F50720F0A21BB30BE40BAC
:10305000F50B661F771F881F991F1A9469F76095F3
:103060007095809590959B01AC01BD01CF010895AD
:10307000052E97FB1EF400940E944F1857FD07D0B1
:103080000E94161807FC03D04EF40C944F1850956C
:103090004095309521953F4F4F4F5F4F0895909544
:1030A0008095709561957F4F8F4F9F4F08950E9437
:1030B0005F18332312F48A1B9B0B0C947018A29F89
:1030C000B001B39FC001A39F700D811D1124911DFC
:1030D000B29F700D811D1124911D08950E945F18EB
:1030E000B7FF0895821B930B0895AA1BBB1B51E1E8
:1030F00007C0AA1FBB1FA617B70710F0A61BB70B68
:10310000881F991F5A95A9F780959095BC01CD010C
:103110000895EE0FFF1F0590F491E02D099450588B
:10312000BB27AA270E94A7180C941A1A0E940C1AEF
:1031300038F00E94131A20F039F49F3F19F426F456
:103140000C94091A0EF4E095E7FB0C94031AE92F8E
:103150000E942B1A58F3BA17620773078407950762
:1031600020F079F4A6F50C944D1A0EF4E0950B2E90
:10317000BA2FA02D0B01B90190010C01CA01A001C9
:103180001124FF27591B99F0593F50F4503E68F124
:103190001A16F040A22F232F342F4427585FF3CF65
:1031A000469537952795A795F0405395C9F77EF436
:1031B0001F16BA0B620B730B840BBAF09150A1F07F
:1031C000FF0FBB1F661F771F881FC2F70EC0BA0F05
:1031D000621F731F841F48F4879577956795B7958D
:1031E000F7959E3F08F0B0CF9395880F08F0992788
:1031F000EE0F9795879508950E94DF1908F481E0F6
:1032000008950E9415190C941A1A0E94131A58F066
:103210000E940C1A40F029F45F3F29F00C94031A25
:1032200051110C944E1A0C94091A0E942B1A68F32F
:103230009923B1F3552391F3951B550BBB27AA276F
:1032400062177307840738F09F5F5F4F220F331FA9
:10325000441FAA1FA9F335D00E2E3AF0E0E832D071
:1032600091505040E695001CCAF72BD0FE2F29D074
:10327000660F771F881FBB1F261737074807AB0746
:10328000B0E809F0BB0B802DBF01FF2793585F4FBB
:103290003AF09E3F510578F00C94031A0C944E1AA4
:1032A0005F3FE4F3983ED4F3869577956795B7959D
:1032B000F7959F5FC9F7880F911D9695879597F9A8
:1032C0000895E1E0660F771F881FBB1F6217730721
:1032D0008407BA0720F0621B730B840BBA0BEE1F36
:1032E00088F7E09508950E94331A88F09F5798F068
:1032F000B92F9927B751B0F0E1F0660F771F881FFB
:10330000991F1AF0BA95C9F714C0B13091F00E9414
:103310004D1AB1E008950C944D1A672F782F882725
:10332000B85F39F0B93FCCF3869577956795B3953B
:10333000D9F73EF490958095709561957F4F8F4FAA
:103340009F4F0895E89409C097FB3EF490958095AF
:10335000709561957F4F8F4F9F4F9923A9F0F92F5B
:1033600096E9BB279395F695879577956795B795D9
:10337000F111F8CFFAF4BB0F11F460FF1BC06F5FBF
:103380007F4F8F4F9F4F16C0882311F096E911C0D1
:10339000772321F09EE8872F762F05C0662371F0F2
:1033A00096E8862F70E060E02AF09A95660F771F06
:1033B000881FDAF7880F9695879597F90895990FE2
:1033C0000008550FAA0BE0E8FEEF16161706E807EF
:1033D000F907C0F012161306E407F50798F0621B10
:1033E000730B840B950B39F40A2661F0232B242BE5
:1033F000252B21F408950A2609F4A140A6958FEF04
:10340000811D811D089597F99F6780E870E060E055
:1034100008959FEF80EC089500240A94161617066D
:1034200018060906089500240A94121613061406B5
:1034300005060895092E0394000C11F4882352F018
:10344000BB0F40F4BF2B11F460FF04C06F5F7F4FD0
:103450008F4F9F4F089557FD9058440F551F59F0B7
:103460005F3F71F04795880F97FB991F61F09F3F71
:1034700079F087950895121613061406551FF2CF9A
:103480004695F1DF08C0161617061806991FF1CFEA
:1034900086957105610508940895E894BB27662711
:1034A0007727CB0197F908950E94DF1908F48FEF71
:1034B00008950E946C1A0C941A1A0E940C1A38F083
:1034C0000E94131A20F0952311F00C94031A0C9407
:1034D000091A11240C944E1A0E942B1A70F3959F0E
:1034E000C1F3950F50E0551F629FF001729FBB27FB
:1034F000F00DB11D639FAA27F00DB11DAA1F649F97
:103500006627B00DA11D661F829F2227B00DA11D49
:10351000621F739FB00DA11D621F839FA00D611DCF
:10352000221F749F3327A00D611D231F849F600DF0
:10353000211D822F762F6A2F11249F5750409AF019
:10354000F1F088234AF0EE0FFF1FBB1F661F771FA5
:10355000881F91505040A9F79E3F510580F00C9470
:10356000031A0C944E1A5F3FE4F3983ED4F3869509
:1035700077956795B795F795E7959F5FC1F7FE2B10
:10358000880F911D9695879597F908950E94DF19E8
:10359000880B990B08950F931F93CF93DF9382307D
:1035A000910510F482E090E0E091E704F091E804E6
:1035B00030E020E0B0E0A0E0309799F4211531052B
:1035C00009F44AC0281B390B24303105D8F58A810B
:1035D0009B816115710589F1FB0193838283FE0153
:1035E00011C0408151810281138148175907E0F0D1
:1035F0004817590799F4109761F012960C93129797
:1036000013961C933296CF01DF91CF911F910F91AA
:1036100008950093E7041093E804F4CF21153105D1
:1036200051F04217530738F0A901DB019A01BD019F
:10363000DF01F801C1CFEF01F9CF9093E804809347
:10364000E704CDCFFE01E20FF31F81939193225047
:10365000310939832883D7CF2091E5043091E604DE
:10366000232B41F420910201309103013093E604B1
:103670002093E504209100013091010121153105CD
:1036800041F42DB73EB74091040150910501241B30
:10369000350BE091E504F091E604E217F307A0F49E
:1036A0002E1B3F0B2817390778F0AC014E5F5F4F98
:1036B0002417350748F04E0F5F1F5093E6044093E0
:1036C000E504819391939FCFF0E0E0E09CCFCF930E
:1036D000DF930097E9F0FC01329713821282A091E8
:1036E000E704B091E804ED0130E020E01097A1F488
:1036F00020813181820F931F2091E5043091E604EF
:103700002817390709F061C0F093E604E093E50457
:10371000DF91CF910895EA01CE17DF07E8F54A81DE
:103720005B819E0141155105B1F7E901FB83EA83F5
:1037300049915991C40FD51FEC17FD0761F48081A1
:1037400091810296840F951FE90199838883828174
:1037500093819B838A83F0E0E0E012968D919C91A7
:1037600013970097B9F52D913C911197CD010296D1
:10377000820F931F2091E5043091E6042817390742
:1037800039F6309751F51092E8041092E704B0939F
:10379000E604A093E504BCCFD383C283408151816A
:1037A000840F951FC817D90761F44E5F5F4F88815A
:1037B0009981480F591F518340838A819B8193834C
:1037C00082832115310509F0B0CFF093E804E0932E
:1037D000E7049ECFFD01DC01C0CF13821282D7CF58
:1037E000FB01DC018D91019080190110D9F3990B37
:1037F0000895FB01DC0101900D920020E1F708958E
:10380000FB01DC014150504048F001900D92002036
:10381000C9F701C01D9241505040E0F70895F89457
:02382000FFCFD8
:103822000000E90480000001FF00FF000001010028
:1038320000FF00FF0100900787076B006C006D001E
:1038420000000000A60210023D02F8026E024C02C5
:103852006002000000002B05FE045A05D404F704A0
:10386200E404D504000000002203FF0B2303090C2B
:103872006F0E00000000A407070CF706F306C70648
:1038820000000000A307050CCF056C050000000036
:10389200A307030C9D07990700000000A207010C73
:1038A2006805640560053A095D05A108710880088C
:1038B2006C08B5082B0ACA08B607A608520893086E
:1038C2005D0884081C0A0D0A00556E6B6E6F776ED8
:1038D20020636F6D6D616E642E004F4B006E616EE2
:1038E20000696E66006F766600424E4F30353500D5
:1038F2003A0050494420557064617465643A20006E
:1039020061006400650072006D006F007500680060
:0239120069004A
:00000001FF
